{
  "_format": "hh-sol-artifact-1",
  "contractName": "DisperseEth",
  "sourceName": "contracts/ETH/DisperseEth.sol",
  "abi": [
    {
      "inputs": [
        {
          "internalType": "address[]",
          "name": "addresses",
          "type": "address[]"
        },
        {
          "internalType": "uint256[]",
          "name": "values",
          "type": "uint256[]"
        }
      ],
      "name": "disperse",
      "outputs": [],
      "stateMutability": "payable",
      "type": "function"
    }
  ],
  "bytecode": "0x608060405234801561001057600080fd5b506103fc806100206000396000f3fe60806040526004361061001e5760003560e01c80632f3cb35b14610023575b600080fd5b61003d6004803603810190610038919061020a565b61003f565b005b60005b848490508110156100e7578484828181106100605761005f61028b565b5b90506020020160208101906100759190610318565b73ffffffffffffffffffffffffffffffffffffffff166108fc8484848181106100a1576100a061028b565b5b905060200201359081150290604051600060405180830381858888f193505050501580156100d3573d6000803e3d6000fd5b5080806100df9061037e565b915050610042565b506000479050600081111561013e573373ffffffffffffffffffffffffffffffffffffffff166108fc829081150290604051600060405180830381858888f1935050505015801561013c573d6000803e3d6000fd5b505b5050505050565b600080fd5b600080fd5b600080fd5b600080fd5b600080fd5b60008083601f8401126101745761017361014f565b5b8235905067ffffffffffffffff81111561019157610190610154565b5b6020830191508360208202830111156101ad576101ac610159565b5b9250929050565b60008083601f8401126101ca576101c961014f565b5b8235905067ffffffffffffffff8111156101e7576101e6610154565b5b60208301915083602082028301111561020357610202610159565b5b9250929050565b6000806000806040858703121561022457610223610145565b5b600085013567ffffffffffffffff8111156102425761024161014a565b5b61024e8782880161015e565b9450945050602085013567ffffffffffffffff8111156102715761027061014a565b5b61027d878288016101b4565b925092505092959194509250565b7f4e487b7100000000000000000000000000000000000000000000000000000000600052603260045260246000fd5b600073ffffffffffffffffffffffffffffffffffffffff82169050919050565b60006102e5826102ba565b9050919050565b6102f5816102da565b811461030057600080fd5b50565b600081359050610312816102ec565b92915050565b60006020828403121561032e5761032d610145565b5b600061033c84828501610303565b91505092915050565b7f4e487b7100000000000000000000000000000000000000000000000000000000600052601160045260246000fd5b6000819050919050565b600061038982610374565b91507fffffffffffffffffffffffffffffffffffffffffffffffffffffffffffffffff82036103bb576103ba610345565b5b60018201905091905056fea26469706673582212200eeda5037676e92b9380a889e081af4c7a8a424bc9324bf55dc655029f589bd764736f6c63430008140033",
  "linkReferences": {},
  "deployedLinkReferences": {}
}